{
  "contracts/InsuranceRegistry.sol": {
    "InsuranceRegistry": {
      "abi": [
        {
          "inputs": [],
          "stateMutability": "nonpayable",
          "type": "constructor"
        },
        {
          "inputs": [
            {
              "internalType": "uint256",
              "name": "claimId",
              "type": "uint256"
            }
          ],
          "name": "approveClaim",
          "outputs": [],
          "stateMutability": "nonpayable",
          "type": "function"
        },
        {
          "inputs": [],
          "name": "claimCounter",
          "outputs": [
            {
              "internalType": "uint256",
              "name": "",
              "type": "uint256"
            }
          ],
          "stateMutability": "view",
          "type": "function"
        },
        {
          "inputs": [
            {
              "internalType": "uint256",
              "name": "",
              "type": "uint256"
            }
          ],
          "name": "claims",
          "outputs": [
            {
              "internalType": "uint256",
              "name": "id",
              "type": "uint256"
            },
            {
              "internalType": "uint256",
              "name": "policyId",
              "type": "uint256"
            },
            {
              "internalType": "string",
              "name": "reason",
              "type": "string"
            },
            {
              "internalType": "enum InsuranceRegistry.ClaimStatus",
              "name": "status",
              "type": "uint8"
            }
          ],
          "stateMutability": "view",
          "type": "function"
        },
        {
          "inputs": [
            {
              "internalType": "string",
              "name": "crop",
              "type": "string"
            },
            {
              "internalType": "string",
              "name": "region",
              "type": "string"
            },
            {
              "internalType": "uint256",
              "name": "coverageAmount",
              "type": "uint256"
            },
            {
              "internalType": "uint256",
              "name": "durationDays",
              "type": "uint256"
            }
          ],
          "name": "createPolicy",
          "outputs": [],
          "stateMutability": "payable",
          "type": "function"
        },
        {
          "inputs": [
            {
              "internalType": "address",
              "name": "",
              "type": "address"
            },
            {
              "internalType": "uint256",
              "name": "",
              "type": "uint256"
            }
          ],
          "name": "farmerPolicies",
          "outputs": [
            {
              "internalType": "uint256",
              "name": "",
              "type": "uint256"
            }
          ],
          "stateMutability": "view",
          "type": "function"
        },
        {
          "inputs": [
            {
              "internalType": "address",
              "name": "farmer",
              "type": "address"
            }
          ],
          "name": "getPoliciesByFarmer",
          "outputs": [
            {
              "internalType": "uint256[]",
              "name": "",
              "type": "uint256[]"
            }
          ],
          "stateMutability": "view",
          "type": "function"
        },
        {
          "inputs": [],
          "name": "owner",
          "outputs": [
            {
              "internalType": "address",
              "name": "",
              "type": "address"
            }
          ],
          "stateMutability": "view",
          "type": "function"
        },
        {
          "inputs": [
            {
              "internalType": "uint256",
              "name": "claimId",
              "type": "uint256"
            }
          ],
          "name": "payoutClaim",
          "outputs": [],
          "stateMutability": "nonpayable",
          "type": "function"
        },
        {
          "inputs": [
            {
              "internalType": "uint256",
              "name": "",
              "type": "uint256"
            }
          ],
          "name": "policies",
          "outputs": [
            {
              "internalType": "uint256",
              "name": "id",
              "type": "uint256"
            },
            {
              "internalType": "address",
              "name": "farmer",
              "type": "address"
            },
            {
              "internalType": "string",
              "name": "crop",
              "type": "string"
            },
            {
              "internalType": "string",
              "name": "region",
              "type": "string"
            },
            {
              "internalType": "uint256",
              "name": "premium",
              "type": "uint256"
            },
            {
              "internalType": "uint256",
              "name": "coverageAmount",
              "type": "uint256"
            },
            {
              "internalType": "uint256",
              "name": "startDate",
              "type": "uint256"
            },
            {
              "internalType": "uint256",
              "name": "endDate",
              "type": "uint256"
            },
            {
              "internalType": "bool",
              "name": "active",
              "type": "bool"
            }
          ],
          "stateMutability": "view",
          "type": "function"
        },
        {
          "inputs": [],
          "name": "policyCounter",
          "outputs": [
            {
              "internalType": "uint256",
              "name": "",
              "type": "uint256"
            }
          ],
          "stateMutability": "view",
          "type": "function"
        },
        {
          "inputs": [
            {
              "internalType": "uint256",
              "name": "claimId",
              "type": "uint256"
            }
          ],
          "name": "rejectClaim",
          "outputs": [],
          "stateMutability": "nonpayable",
          "type": "function"
        },
        {
          "inputs": [
            {
              "internalType": "uint256",
              "name": "policyId",
              "type": "uint256"
            },
            {
              "internalType": "string",
              "name": "reason",
              "type": "string"
            }
          ],
          "name": "submitClaim",
          "outputs": [],
          "stateMutability": "nonpayable",
          "type": "function"
        },
        {
          "stateMutability": "payable",
          "type": "receive"
        }
      ],
      "evm": {
        "bytecode": {
          "linkReferences": {},
          "object": "6080604052348015600f57600080fd5b50336000806101000a81548173ffffffffffffffffffffffffffffffffffffffff021916908373ffffffffffffffffffffffffffffffffffffffff160217905550611c088061005f6000396000f3fe6080604052600436106100ab5760003560e01c80636a181556116100645780636a181556146101a257806375f89051146101df5780638da5cb5b1461021c578063a888c2cd14610247578063d3e8948314610287578063d52c1bea146102cc576100b2565b80630d13fa5a146100b757806320341101146100e057806345b465251461010957806346e30135146101325780634efa8f171461015b578063666b2bec14610186576100b2565b366100b257005b600080fd5b3480156100c357600080fd5b506100de60048036038101906100d99190610eae565b6102f7565b005b3480156100ec57600080fd5b5061010760048036038101906101029190610eae565b6104a6565b005b34801561011557600080fd5b50610130600480360381019061012b9190611021565b6105f4565b005b34801561013e57600080fd5b5061015960048036038101906101549190610eae565b6107b3565b005b34801561016757600080fd5b50610170610901565b60405161017d919061108c565b60405180910390f35b6101a0600480360381019061019b91906110a7565b610907565b005b3480156101ae57600080fd5b506101c960048036038101906101c491906111a4565b610b22565b6040516101d6919061128f565b60405180910390f35b3480156101eb57600080fd5b50610206600480360381019061020191906112b1565b610bb9565b604051610213919061108c565b60405180910390f35b34801561022857600080fd5b50610231610bea565b60405161023e9190611300565b60405180910390f35b34801561025357600080fd5b5061026e60048036038101906102699190610eae565b610c0e565b60405161027e9493929190611411565b60405180910390f35b34801561029357600080fd5b506102ae60048036038101906102a99190610eae565b610cd3565b6040516102c399989796959493929190611478565b60405180910390f35b3480156102d857600080fd5b506102e1610e5e565b6040516102ee919061108c565b60405180910390f35b60006005600083815260200190815260200160002090506000600360008360010154815260200190815260200160002090506001600381111561033d5761033c61139a565b5b8260030160009054906101000a900460ff1660038111156103615761036061139a565b5b146103a1576040517f08c379a00000000000000000000000000000000000000000000000000000000081526004016103989061155f565b60405180910390fd5b80600501544710156103e8576040517f08c379a00000000000000000000000000000000000000000000000000000000081526004016103df906115cb565b60405180910390fd5b60038260030160006101000a81548160ff021916908360038111156104105761040f61139a565b5b021790555060008160080160006101000a81548160ff0219169083151502179055508060010160009054906101000a900473ffffffffffffffffffffffffffffffffffffffff1673ffffffffffffffffffffffffffffffffffffffff166108fc82600501549081150290604051600060405180830381858888f193505050501580156104a0573d6000803e3d6000fd5b50505050565b60008054906101000a900473ffffffffffffffffffffffffffffffffffffffff1673ffffffffffffffffffffffffffffffffffffffff163373ffffffffffffffffffffffffffffffffffffffff1614610534576040517f08c379a000000000000000000000000000000000000000000000000000000000815260040161052b90611637565b60405180910390fd5b60006005600083815260200190815260200160002090506000600381111561055f5761055e61139a565b5b8160030160009054906101000a900460ff1660038111156105835761058261139a565b5b146105c3576040517f08c379a00000000000000000000000000000000000000000000000000000000081526004016105ba906116a3565b60405180910390fd5b60028160030160006101000a81548160ff021916908360038111156105eb576105ea61139a565b5b02179055505050565b60006003600084815260200190815260200160002090508060010160009054906101000a900473ffffffffffffffffffffffffffffffffffffffff1673ffffffffffffffffffffffffffffffffffffffff163373ffffffffffffffffffffffffffffffffffffffff161461069d576040517f08c379a00000000000000000000000000000000000000000000000000000000081526004016106949061170f565b60405180910390fd5b8060080160009054906101000a900460ff166106ee576040517f08c379a00000000000000000000000000000000000000000000000000000000081526004016106e59061177b565b60405180910390fd5b60026000815480929190610701906117ca565b919050555060405180608001604052806002548152602001848152602001838152602001600060038111156107395761073861139a565b5b8152506005600060025481526020019081526020016000206000820151816000015560208201518160010155604082015181600201908161077a9190611a1e565b5060608201518160030160006101000a81548160ff021916908360038111156107a6576107a561139a565b5b0217905550905050505050565b60008054906101000a900473ffffffffffffffffffffffffffffffffffffffff1673ffffffffffffffffffffffffffffffffffffffff163373ffffffffffffffffffffffffffffffffffffffff1614610841576040517f08c379a000000000000000000000000000000000000000000000000000000000815260040161083890611637565b60405180910390fd5b60006005600083815260200190815260200160002090506000600381111561086c5761086b61139a565b5b8160030160009054906101000a900460ff1660038111156108905761088f61139a565b5b146108d0576040517f08c379a00000000000000000000000000000000000000000000000000000000081526004016108c7906116a3565b60405180910390fd5b60018160030160006101000a81548160ff021916908360038111156108f8576108f761139a565b5b02179055505050565b60025481565b6000341161094a576040517f08c379a000000000000000000000000000000000000000000000000000000000815260040161094190611b3c565b60405180910390fd5b6001600081548092919061095d906117ca565b919050555060405180610120016040528060015481526020013373ffffffffffffffffffffffffffffffffffffffff16815260200185815260200184815260200134815260200183815260200142815260200162015180836109bf9190611b5c565b426109ca9190611b9e565b8152602001600115158152506003600060015481526020019081526020016000206000820151816000015560208201518160010160006101000a81548173ffffffffffffffffffffffffffffffffffffffff021916908373ffffffffffffffffffffffffffffffffffffffff1602179055506040820151816002019081610a519190611a1e565b506060820151816003019081610a679190611a1e565b506080820151816004015560a0820151816005015560c0820151816006015560e082015181600701556101008201518160080160006101000a81548160ff021916908315150217905550905050600460003373ffffffffffffffffffffffffffffffffffffffff1673ffffffffffffffffffffffffffffffffffffffff168152602001908152602001600020600154908060018154018082558091505060019003906000526020600020016000909190919091505550505050565b6060600460008373ffffffffffffffffffffffffffffffffffffffff1673ffffffffffffffffffffffffffffffffffffffff168152602001908152602001600020805480602002602001604051908101604052809291908181526020018280548015610bad57602002820191906000526020600020905b815481526020019060010190808311610b99575b50505050509050919050565b60046020528160005260406000208181548110610bd557600080fd5b90600052602060002001600091509150505481565b60008054906101000a900473ffffffffffffffffffffffffffffffffffffffff1681565b6005602052806000526040600020600091509050806000015490806001015490806002018054610c3d90611841565b80601f0160208091040260200160405190810160405280929190818152602001828054610c6990611841565b8015610cb65780601f10610c8b57610100808354040283529160200191610cb6565b820191906000526020600020905b815481529060010190602001808311610c9957829003601f168201915b5050505050908060030160009054906101000a900460ff16905084565b60036020528060005260406000206000915090508060000154908060010160009054906101000a900473ffffffffffffffffffffffffffffffffffffffff1690806002018054610d2290611841565b80601f0160208091040260200160405190810160405280929190818152602001828054610d4e90611841565b8015610d9b5780601f10610d7057610100808354040283529160200191610d9b565b820191906000526020600020905b815481529060010190602001808311610d7e57829003601f168201915b505050505090806003018054610db090611841565b80601f0160208091040260200160405190810160405280929190818152602001828054610ddc90611841565b8015610e295780601f10610dfe57610100808354040283529160200191610e29565b820191906000526020600020905b815481529060010190602001808311610e0c57829003601f168201915b5050505050908060040154908060050154908060060154908060070154908060080160009054906101000a900460ff16905089565b60015481565b6000604051905090565b600080fd5b600080fd5b6000819050919050565b610e8b81610e78565b8114610e9657600080fd5b50565b600081359050610ea881610e82565b92915050565b600060208284031215610ec457610ec3610e6e565b5b6000610ed284828501610e99565b91505092915050565b600080fd5b600080fd5b6000601f19601f8301169050919050565b7f4e487b7100000000000000000000000000000000000000000000000000000000600052604160045260246000fd5b610f2e82610ee5565b810181811067ffffffffffffffff82111715610f4d57610f4c610ef6565b5b80604052505050565b6000610f60610e64565b9050610f6c8282610f25565b919050565b600067ffffffffffffffff821115610f8c57610f8b610ef6565b5b610f9582610ee5565b9050602081019050919050565b82818337600083830152505050565b6000610fc4610fbf84610f71565b610f56565b905082815260208101848484011115610fe057610fdf610ee0565b5b610feb848285610fa2565b509392505050565b600082601f83011261100857611007610edb565b5b8135611018848260208601610fb1565b91505092915050565b6000806040838503121561103857611037610e6e565b5b600061104685828601610e99565b925050602083013567ffffffffffffffff81111561106757611066610e73565b5b61107385828601610ff3565b9150509250929050565b61108681610e78565b82525050565b60006020820190506110a1600083018461107d565b92915050565b600080600080608085870312156110c1576110c0610e6e565b5b600085013567ffffffffffffffff8111156110df576110de610e73565b5b6110eb87828801610ff3565b945050602085013567ffffffffffffffff81111561110c5761110b610e73565b5b61111887828801610ff3565b935050604061112987828801610e99565b925050606061113a87828801610e99565b91505092959194509250565b600073ffffffffffffffffffffffffffffffffffffffff82169050919050565b600061117182611146565b9050919050565b61118181611166565b811461118c57600080fd5b50565b60008135905061119e81611178565b92915050565b6000602082840312156111ba576111b9610e6e565b5b60006111c88482850161118f565b91505092915050565b600081519050919050565b600082825260208201905092915050565b6000819050602082019050919050565b61120681610e78565b82525050565b600061121883836111fd565b60208301905092915050565b6000602082019050919050565b600061123c826111d1565b61124681856111dc565b9350611251836111ed565b8060005b83811015611282578151611269888261120c565b975061127483611224565b925050600181019050611255565b5085935050505092915050565b600060208201905081810360008301526112a98184611231565b905092915050565b600080604083850312156112c8576112c7610e6e565b5b60006112d68582860161118f565b92505060206112e785828601610e99565b9150509250929050565b6112fa81611166565b82525050565b600060208201905061131560008301846112f1565b92915050565b600081519050919050565b600082825260208201905092915050565b60005b8381101561135557808201518184015260208101905061133a565b60008484015250505050565b600061136c8261131b565b6113768185611326565b9350611386818560208601611337565b61138f81610ee5565b840191505092915050565b7f4e487b7100000000000000000000000000000000000000000000000000000000600052602160045260246000fd5b600481106113da576113d961139a565b5b50565b60008190506113eb826113c9565b919050565b60006113fb826113dd565b9050919050565b61140b816113f0565b82525050565b6000608082019050611426600083018761107d565b611433602083018661107d565b81810360408301526114458185611361565b90506114546060830184611402565b95945050505050565b60008115159050919050565b6114728161145d565b82525050565b60006101208201905061148e600083018c61107d565b61149b602083018b6112f1565b81810360408301526114ad818a611361565b905081810360608301526114c18189611361565b90506114d0608083018861107d565b6114dd60a083018761107d565b6114ea60c083018661107d565b6114f760e083018561107d565b611505610100830184611469565b9a9950505050505050505050565b7f4e6f7420617070726f7665640000000000000000000000000000000000000000600082015250565b6000611549600c83611326565b915061155482611513565b602082019050919050565b600060208201905081810360008301526115788161153c565b9050919050565b7f496e73756666696369656e742066756e64730000000000000000000000000000600082015250565b60006115b5601283611326565b91506115c08261157f565b602082019050919050565b600060208201905081810360008301526115e4816115a8565b9050919050565b7f4e6f7420617574686f72697a6564000000000000000000000000000000000000600082015250565b6000611621600e83611326565b915061162c826115eb565b602082019050919050565b6000602082019050818103600083015261165081611614565b9050919050565b7f496e76616c696420737461747573000000000000000000000000000000000000600082015250565b600061168d600e83611326565b915061169882611657565b602082019050919050565b600060208201905081810360008301526116bc81611680565b9050919050565b7f4e6f7420706f6c696379206f776e657200000000000000000000000000000000600082015250565b60006116f9601083611326565b9150611704826116c3565b602082019050919050565b60006020820190508181036000830152611728816116ec565b9050919050565b7f506f6c69637920696e6163746976650000000000000000000000000000000000600082015250565b6000611765600f83611326565b91506117708261172f565b602082019050919050565b6000602082019050818103600083015261179481611758565b9050919050565b7f4e487b7100000000000000000000000000000000000000000000000000000000600052601160045260246000fd5b60006117d582610e78565b91507fffffffffffffffffffffffffffffffffffffffffffffffffffffffffffffffff82036118075761180661179b565b5b600182019050919050565b7f4e487b7100000000000000000000000000000000000000000000000000000000600052602260045260246000fd5b6000600282049050600182168061185957607f821691505b60208210810361186c5761186b611812565b5b50919050565b60008190508160005260206000209050919050565b60006020601f8301049050919050565b600082821b905092915050565b6000600883026118d47fffffffffffffffffffffffffffffffffffffffffffffffffffffffffffffffff82611897565b6118de8683611897565b95508019841693508086168417925050509392505050565b6000819050919050565b600061191b61191661191184610e78565b6118f6565b610e78565b9050919050565b6000819050919050565b61193583611900565b61194961194182611922565b8484546118a4565b825550505050565b600090565b61195e611951565b61196981848461192c565b505050565b5b8181101561198d57611982600082611956565b60018101905061196f565b5050565b601f8211156119d2576119a381611872565b6119ac84611887565b810160208510156119bb578190505b6119cf6119c785611887565b83018261196e565b50505b505050565b600082821c905092915050565b60006119f5600019846008026119d7565b1980831691505092915050565b6000611a0e83836119e4565b9150826002028217905092915050565b611a278261131b565b67ffffffffffffffff811115611a4057611a3f610ef6565b5b611a4a8254611841565b611a55828285611991565b600060209050601f831160018114611a885760008415611a76578287015190505b611a808582611a02565b865550611ae8565b601f198416611a9686611872565b60005b82811015611abe57848901518255600182019150602085019450602081019050611a99565b86831015611adb5784890151611ad7601f8916826119e4565b8355505b6001600288020188555050505b505050505050565b7f5072656d69756d20726571756972656400000000000000000000000000000000600082015250565b6000611b26601083611326565b9150611b3182611af0565b602082019050919050565b60006020820190508181036000830152611b5581611b19565b9050919050565b6000611b6782610e78565b9150611b7283610e78565b9250828202611b8081610e78565b91508282048414831517611b9757611b9661179b565b5b5092915050565b6000611ba982610e78565b9150611bb483610e78565b9250828201905080821115611bcc57611bcb61179b565b5b9291505056fea2646970667358221220838ba251e58e2496ac5865f965a02d500efc22099922ebaa112e745a404d895064736f6c634300081c0033",
          "opcodes": "PUSH1 0x80 PUSH1 0x40 MSTORE CALLVALUE DUP1 ISZERO PUSH1 0xF JUMPI PUSH1 0x0 DUP1 REVERT JUMPDEST POP CALLER PUSH1 0x0 DUP1 PUSH2 0x100 EXP DUP2 SLOAD DUP2 PUSH20 0xFFFFFFFFFFFFFFFFFFFFFFFFFFFFFFFFFFFFFFFF MUL NOT AND SWAP1 DUP4 PUSH20 0xFFFFFFFFFFFFFFFFFFFFFFFFFFFFFFFFFFFFFFFF AND MUL OR SWAP1 SSTORE POP PUSH2 0x1C08 DUP1 PUSH2 0x5F PUSH1 0x0 CODECOPY PUSH1 0x0 RETURN INVALID PUSH1 0x80 PUSH1 0x40 MSTORE PUSH1 0x4 CALLDATASIZE LT PUSH2 0xAB JUMPI PUSH1 0x0 CALLDATALOAD PUSH1 0xE0 SHR DUP1 PUSH4 0x6A181556 GT PUSH2 0x64 JUMPI DUP1 PUSH4 0x6A181556 EQ PUSH2 0x1A2 JUMPI DUP1 PUSH4 0x75F89051 EQ PUSH2 0x1DF JUMPI DUP1 PUSH4 0x8DA5CB5B EQ PUSH2 0x21C JUMPI DUP1 PUSH4 0xA888C2CD EQ PUSH2 0x247 JUMPI DUP1 PUSH4 0xD3E89483 EQ PUSH2 0x287 JUMPI DUP1 PUSH4 0xD52C1BEA EQ PUSH2 0x2CC JUMPI PUSH2 0xB2 JUMP JUMPDEST DUP1 PUSH4 0xD13FA5A EQ PUSH2 0xB7 JUMPI DUP1 PUSH4 0x20341101 EQ PUSH2 0xE0 JUMPI DUP1 PUSH4 0x45B46525 EQ PUSH2 0x109 JUMPI DUP1 PUSH4 0x46E30135 EQ PUSH2 0x132 JUMPI DUP1 PUSH4 0x4EFA8F17 EQ PUSH2 0x15B JUMPI DUP1 PUSH4 0x666B2BEC EQ PUSH2 0x186 JUMPI PUSH2 0xB2 JUMP JUMPDEST CALLDATASIZE PUSH2 0xB2 JUMPI STOP JUMPDEST PUSH1 0x0 DUP1 REVERT JUMPDEST CALLVALUE DUP1 ISZERO PUSH2 0xC3 JUMPI PUSH1 0x0 DUP1 REVERT JUMPDEST POP PUSH2 0xDE PUSH1 0x4 DUP1 CALLDATASIZE SUB DUP2 ADD SWAP1 PUSH2 0xD9 SWAP2 SWAP1 PUSH2 0xEAE JUMP JUMPDEST PUSH2 0x2F7 JUMP JUMPDEST STOP JUMPDEST CALLVALUE DUP1 ISZERO PUSH2 0xEC JUMPI PUSH1 0x0 DUP1 REVERT JUMPDEST POP PUSH2 0x107 PUSH1 0x4 DUP1 CALLDATASIZE SUB DUP2 ADD SWAP1 PUSH2 0x102 SWAP2 SWAP1 PUSH2 0xEAE JUMP JUMPDEST PUSH2 0x4A6 JUMP JUMPDEST STOP JUMPDEST CALLVALUE DUP1 ISZERO PUSH2 0x115 JUMPI PUSH1 0x0 DUP1 REVERT JUMPDEST POP PUSH2 0x130 PUSH1 0x4 DUP1 CALLDATASIZE SUB DUP2 ADD SWAP1 PUSH2 0x12B SWAP2 SWAP1 PUSH2 0x1021 JUMP JUMPDEST PUSH2 0x5F4 JUMP JUMPDEST STOP JUMPDEST CALLVALUE DUP1 ISZERO PUSH2 0x13E JUMPI PUSH1 0x0 DUP1 REVERT JUMPDEST POP PUSH2 0x159 PUSH1 0x4 DUP1 CALLDATASIZE SUB DUP2 ADD SWAP1 PUSH2 0x154 SWAP2 SWAP1 PUSH2 0xEAE JUMP JUMPDEST PUSH2 0x7B3 JUMP JUMPDEST STOP JUMPDEST CALLVALUE DUP1 ISZERO PUSH2 0x167 JUMPI PUSH1 0x0 DUP1 REVERT JUMPDEST POP PUSH2 0x170 PUSH2 0x901 JUMP JUMPDEST PUSH1 0x40 MLOAD PUSH2 0x17D SWAP2 SWAP1 PUSH2 0x108C JUMP JUMPDEST PUSH1 0x40 MLOAD DUP1 SWAP2 SUB SWAP1 RETURN JUMPDEST PUSH2 0x1A0 PUSH1 0x4 DUP1 CALLDATASIZE SUB DUP2 ADD SWAP1 PUSH2 0x19B SWAP2 SWAP1 PUSH2 0x10A7 JUMP JUMPDEST PUSH2 0x907 JUMP JUMPDEST STOP JUMPDEST CALLVALUE DUP1 ISZERO PUSH2 0x1AE JUMPI PUSH1 0x0 DUP1 REVERT JUMPDEST POP PUSH2 0x1C9 PUSH1 0x4 DUP1 CALLDATASIZE SUB DUP2 ADD SWAP1 PUSH2 0x1C4 SWAP2 SWAP1 PUSH2 0x11A4 JUMP JUMPDEST PUSH2 0xB22 JUMP JUMPDEST PUSH1 0x40 MLOAD PUSH2 0x1D6 SWAP2 SWAP1 PUSH2 0x128F JUMP JUMPDEST PUSH1 0x40 MLOAD DUP1 SWAP2 SUB SWAP1 RETURN JUMPDEST CALLVALUE DUP1 ISZERO PUSH2 0x1EB JUMPI PUSH1 0x0 DUP1 REVERT JUMPDEST POP PUSH2 0x206 PUSH1 0x4 DUP1 CALLDATASIZE SUB DUP2 ADD SWAP1 PUSH2 0x201 SWAP2 SWAP1 PUSH2 0x12B1 JUMP JUMPDEST PUSH2 0xBB9 JUMP JUMPDEST PUSH1 0x40 MLOAD PUSH2 0x213 SWAP2 SWAP1 PUSH2 0x108C JUMP JUMPDEST PUSH1 0x40 MLOAD DUP1 SWAP2 SUB SWAP1 RETURN JUMPDEST CALLVALUE DUP1 ISZERO PUSH2 0x228 JUMPI PUSH1 0x0 DUP1 REVERT JUMPDEST POP PUSH2 0x231 PUSH2 0xBEA JUMP JUMPDEST PUSH1 0x40 MLOAD PUSH2 0x23E SWAP2 SWAP1 PUSH2 0x1300 JUMP JUMPDEST PUSH1 0x40 MLOAD DUP1 SWAP2 SUB SWAP1 RETURN JUMPDEST CALLVALUE DUP1 ISZERO PUSH2 0x253 JUMPI PUSH1 0x0 DUP1 REVERT JUMPDEST POP PUSH2 0x26E PUSH1 0x4 DUP1 CALLDATASIZE SUB DUP2 ADD SWAP1 PUSH2 0x269 SWAP2 SWAP1 PUSH2 0xEAE JUMP JUMPDEST PUSH2 0xC0E JUMP JUMPDEST PUSH1 0x40 MLOAD PUSH2 0x27E SWAP5 SWAP4 SWAP3 SWAP2 SWAP1 PUSH2 0x1411 JUMP JUMPDEST PUSH1 0x40 MLOAD DUP1 SWAP2 SUB SWAP1 RETURN JUMPDEST CALLVALUE DUP1 ISZERO PUSH2 0x293 JUMPI PUSH1 0x0 DUP1 REVERT JUMPDEST POP PUSH2 0x2AE PUSH1 0x4 DUP1 CALLDATASIZE SUB DUP2 ADD SWAP1 PUSH2 0x2A9 SWAP2 SWAP1 PUSH2 0xEAE JUMP JUMPDEST PUSH2 0xCD3 JUMP JUMPDEST PUSH1 0x40 MLOAD PUSH2 0x2C3 SWAP10 SWAP9 SWAP8 SWAP7 SWAP6 SWAP5 SWAP4 SWAP3 SWAP2 SWAP1 PUSH2 0x1478 JUMP JUMPDEST PUSH1 0x40 MLOAD DUP1 SWAP2 SUB SWAP1 RETURN JUMPDEST CALLVALUE DUP1 ISZERO PUSH2 0x2D8 JUMPI PUSH1 0x0 DUP1 REVERT JUMPDEST POP PUSH2 0x2E1 PUSH2 0xE5E JUMP JUMPDEST PUSH1 0x40 MLOAD PUSH2 0x2EE SWAP2 SWAP1 PUSH2 0x108C JUMP JUMPDEST PUSH1 0x40 MLOAD DUP1 SWAP2 SUB SWAP1 RETURN JUMPDEST PUSH1 0x0 PUSH1 0x5 PUSH1 0x0 DUP4 DUP2 MSTORE PUSH1 0x20 ADD SWAP1 DUP2 MSTORE PUSH1 0x20 ADD PUSH1 0x0 KECCAK256 SWAP1 POP PUSH1 0x0 PUSH1 0x3 PUSH1 0x0 DUP4 PUSH1 0x1 ADD SLOAD DUP2 MSTORE PUSH1 0x20 ADD SWAP1 DUP2 MSTORE PUSH1 0x20 ADD PUSH1 0x0 KECCAK256 SWAP1 POP PUSH1 0x1 PUSH1 0x3 DUP2 GT ISZERO PUSH2 0x33D JUMPI PUSH2 0x33C PUSH2 0x139A JUMP JUMPDEST JUMPDEST DUP3 PUSH1 0x3 ADD PUSH1 0x0 SWAP1 SLOAD SWAP1 PUSH2 0x100 EXP SWAP1 DIV PUSH1 0xFF AND PUSH1 0x3 DUP2 GT ISZERO PUSH2 0x361 JUMPI PUSH2 0x360 PUSH2 0x139A JUMP JUMPDEST JUMPDEST EQ PUSH2 0x3A1 JUMPI PUSH1 0x40 MLOAD PUSH32 0x8C379A000000000000000000000000000000000000000000000000000000000 DUP2 MSTORE PUSH1 0x4 ADD PUSH2 0x398 SWAP1 PUSH2 0x155F JUMP JUMPDEST PUSH1 0x40 MLOAD DUP1 SWAP2 SUB SWAP1 REVERT JUMPDEST DUP1 PUSH1 0x5 ADD SLOAD SELFBALANCE LT ISZERO PUSH2 0x3E8 JUMPI PUSH1 0x40 MLOAD PUSH32 0x8C379A000000000000000000000000000000000000000000000000000000000 DUP2 MSTORE PUSH1 0x4 ADD PUSH2 0x3DF SWAP1 PUSH2 0x15CB JUMP JUMPDEST PUSH1 0x40 MLOAD DUP1 SWAP2 SUB SWAP1 REVERT JUMPDEST PUSH1 0x3 DUP3 PUSH1 0x3 ADD PUSH1 0x0 PUSH2 0x100 EXP DUP2 SLOAD DUP2 PUSH1 0xFF MUL NOT AND SWAP1 DUP4 PUSH1 0x3 DUP2 GT ISZERO PUSH2 0x410 JUMPI PUSH2 0x40F PUSH2 0x139A JUMP JUMPDEST JUMPDEST MUL OR SWAP1 SSTORE POP PUSH1 0x0 DUP2 PUSH1 0x8 ADD PUSH1 0x0 PUSH2 0x100 EXP DUP2 SLOAD DUP2 PUSH1 0xFF MUL NOT AND SWAP1 DUP4 ISZERO ISZERO MUL OR SWAP1 SSTORE POP DUP1 PUSH1 0x1 ADD PUSH1 0x0 SWAP1 SLOAD SWAP1 PUSH2 0x100 EXP SWAP1 DIV PUSH20 0xFFFFFFFFFFFFFFFFFFFFFFFFFFFFFFFFFFFFFFFF AND PUSH20 0xFFFFFFFFFFFFFFFFFFFFFFFFFFFFFFFFFFFFFFFF AND PUSH2 0x8FC DUP3 PUSH1 0x5 ADD SLOAD SWAP1 DUP2 ISZERO MUL SWAP1 PUSH1 0x40 MLOAD PUSH1 0x0 PUSH1 0x40 MLOAD DUP1 DUP4 SUB DUP2 DUP6 DUP9 DUP9 CALL SWAP4 POP POP POP POP ISZERO DUP1 ISZERO PUSH2 0x4A0 JUMPI RETURNDATASIZE PUSH1 0x0 DUP1 RETURNDATACOPY RETURNDATASIZE PUSH1 0x0 REVERT JUMPDEST POP POP POP POP JUMP JUMPDEST PUSH1 0x0 DUP1 SLOAD SWAP1 PUSH2 0x100 EXP SWAP1 DIV PUSH20 0xFFFFFFFFFFFFFFFFFFFFFFFFFFFFFFFFFFFFFFFF AND PUSH20 0xFFFFFFFFFFFFFFFFFFFFFFFFFFFFFFFFFFFFFFFF AND CALLER PUSH20 0xFFFFFFFFFFFFFFFFFFFFFFFFFFFFFFFFFFFFFFFF AND EQ PUSH2 0x534 JUMPI PUSH1 0x40 MLOAD PUSH32 0x8C379A000000000000000000000000000000000000000000000000000000000 DUP2 MSTORE PUSH1 0x4 ADD PUSH2 0x52B SWAP1 PUSH2 0x1637 JUMP JUMPDEST PUSH1 0x40 MLOAD DUP1 SWAP2 SUB SWAP1 REVERT JUMPDEST PUSH1 0x0 PUSH1 0x5 PUSH1 0x0 DUP4 DUP2 MSTORE PUSH1 0x20 ADD SWAP1 DUP2 MSTORE PUSH1 0x20 ADD PUSH1 0x0 KECCAK256 SWAP1 POP PUSH1 0x0 PUSH1 0x3 DUP2 GT ISZERO PUSH2 0x55F JUMPI PUSH2 0x55E PUSH2 0x139A JUMP JUMPDEST JUMPDEST DUP2 PUSH1 0x3 ADD PUSH1 0x0 SWAP1 SLOAD SWAP1 PUSH2 0x100 EXP SWAP1 DIV PUSH1 0xFF AND PUSH1 0x3 DUP2 GT ISZERO PUSH2 0x583 JUMPI PUSH2 0x582 PUSH2 0x139A JUMP JUMPDEST JUMPDEST EQ PUSH2 0x5C3 JUMPI PUSH1 0x40 MLOAD PUSH32 0x8C379A000000000000000000000000000000000000000000000000000000000 DUP2 MSTORE PUSH1 0x4 ADD PUSH2 0x5BA SWAP1 PUSH2 0x16A3 JUMP JUMPDEST PUSH1 0x40 MLOAD DUP1 SWAP2 SUB SWAP1 REVERT JUMPDEST PUSH1 0x2 DUP2 PUSH1 0x3 ADD PUSH1 0x0 PUSH2 0x100 EXP DUP2 SLOAD DUP2 PUSH1 0xFF MUL NOT AND SWAP1 DUP4 PUSH1 0x3 DUP2 GT ISZERO PUSH2 0x5EB JUMPI PUSH2 0x5EA PUSH2 0x139A JUMP JUMPDEST JUMPDEST MUL OR SWAP1 SSTORE POP POP POP JUMP JUMPDEST PUSH1 0x0 PUSH1 0x3 PUSH1 0x0 DUP5 DUP2 MSTORE PUSH1 0x20 ADD SWAP1 DUP2 MSTORE PUSH1 0x20 ADD PUSH1 0x0 KECCAK256 SWAP1 POP DUP1 PUSH1 0x1 ADD PUSH1 0x0 SWAP1 SLOAD SWAP1 PUSH2 0x100 EXP SWAP1 DIV PUSH20 0xFFFFFFFFFFFFFFFFFFFFFFFFFFFFFFFFFFFFFFFF AND PUSH20 0xFFFFFFFFFFFFFFFFFFFFFFFFFFFFFFFFFFFFFFFF AND CALLER PUSH20 0xFFFFFFFFFFFFFFFFFFFFFFFFFFFFFFFFFFFFFFFF AND EQ PUSH2 0x69D JUMPI PUSH1 0x40 MLOAD PUSH32 0x8C379A000000000000000000000000000000000000000000000000000000000 DUP2 MSTORE PUSH1 0x4 ADD PUSH2 0x694 SWAP1 PUSH2 0x170F JUMP JUMPDEST PUSH1 0x40 MLOAD DUP1 SWAP2 SUB SWAP1 REVERT JUMPDEST DUP1 PUSH1 0x8 ADD PUSH1 0x0 SWAP1 SLOAD SWAP1 PUSH2 0x100 EXP SWAP1 DIV PUSH1 0xFF AND PUSH2 0x6EE JUMPI PUSH1 0x40 MLOAD PUSH32 0x8C379A000000000000000000000000000000000000000000000000000000000 DUP2 MSTORE PUSH1 0x4 ADD PUSH2 0x6E5 SWAP1 PUSH2 0x177B JUMP JUMPDEST PUSH1 0x40 MLOAD DUP1 SWAP2 SUB SWAP1 REVERT JUMPDEST PUSH1 0x2 PUSH1 0x0 DUP2 SLOAD DUP1 SWAP3 SWAP2 SWAP1 PUSH2 0x701 SWAP1 PUSH2 0x17CA JUMP JUMPDEST SWAP2 SWAP1 POP SSTORE POP PUSH1 0x40 MLOAD DUP1 PUSH1 0x80 ADD PUSH1 0x40 MSTORE DUP1 PUSH1 0x2 SLOAD DUP2 MSTORE PUSH1 0x20 ADD DUP5 DUP2 MSTORE PUSH1 0x20 ADD DUP4 DUP2 MSTORE PUSH1 0x20 ADD PUSH1 0x0 PUSH1 0x3 DUP2 GT ISZERO PUSH2 0x739 JUMPI PUSH2 0x738 PUSH2 0x139A JUMP JUMPDEST JUMPDEST DUP2 MSTORE POP PUSH1 0x5 PUSH1 0x0 PUSH1 0x2 SLOAD DUP2 MSTORE PUSH1 0x20 ADD SWAP1 DUP2 MSTORE PUSH1 0x20 ADD PUSH1 0x0 KECCAK256 PUSH1 0x0 DUP3 ADD MLOAD DUP2 PUSH1 0x0 ADD SSTORE PUSH1 0x20 DUP3 ADD MLOAD DUP2 PUSH1 0x1 ADD SSTORE PUSH1 0x40 DUP3 ADD MLOAD DUP2 PUSH1 0x2 ADD SWAP1 DUP2 PUSH2 0x77A SWAP2 SWAP1 PUSH2 0x1A1E JUMP JUMPDEST POP PUSH1 0x60 DUP3 ADD MLOAD DUP2 PUSH1 0x3 ADD PUSH1 0x0 PUSH2 0x100 EXP DUP2 SLOAD DUP2 PUSH1 0xFF MUL NOT AND SWAP1 DUP4 PUSH1 0x3 DUP2 GT ISZERO PUSH2 0x7A6 JUMPI PUSH2 0x7A5 PUSH2 0x139A JUMP JUMPDEST JUMPDEST MUL OR SWAP1 SSTORE POP SWAP1 POP POP POP POP POP JUMP JUMPDEST PUSH1 0x0 DUP1 SLOAD SWAP1 PUSH2 0x100 EXP SWAP1 DIV PUSH20 0xFFFFFFFFFFFFFFFFFFFFFFFFFFFFFFFFFFFFFFFF AND PUSH20 0xFFFFFFFFFFFFFFFFFFFFFFFFFFFFFFFFFFFFFFFF AND CALLER PUSH20 0xFFFFFFFFFFFFFFFFFFFFFFFFFFFFFFFFFFFFFFFF AND EQ PUSH2 0x841 JUMPI PUSH1 0x40 MLOAD PUSH32 0x8C379A000000000000000000000000000000000000000000000000000000000 DUP2 MSTORE PUSH1 0x4 ADD PUSH2 0x838 SWAP1 PUSH2 0x1637 JUMP JUMPDEST PUSH1 0x40 MLOAD DUP1 SWAP2 SUB SWAP1 REVERT JUMPDEST PUSH1 0x0 PUSH1 0x5 PUSH1 0x0 DUP4 DUP2 MSTORE PUSH1 0x20 ADD SWAP1 DUP2 MSTORE PUSH1 0x20 ADD PUSH1 0x0 KECCAK256 SWAP1 POP PUSH1 0x0 PUSH1 0x3 DUP2 GT ISZERO PUSH2 0x86C JUMPI PUSH2 0x86B PUSH2 0x139A JUMP JUMPDEST JUMPDEST DUP2 PUSH1 0x3 ADD PUSH1 0x0 SWAP1 SLOAD SWAP1 PUSH2 0x100 EXP SWAP1 DIV PUSH1 0xFF AND PUSH1 0x3 DUP2 GT ISZERO PUSH2 0x890 JUMPI PUSH2 0x88F PUSH2 0x139A JUMP JUMPDEST JUMPDEST EQ PUSH2 0x8D0 JUMPI PUSH1 0x40 MLOAD PUSH32 0x8C379A000000000000000000000000000000000000000000000000000000000 DUP2 MSTORE PUSH1 0x4 ADD PUSH2 0x8C7 SWAP1 PUSH2 0x16A3 JUMP JUMPDEST PUSH1 0x40 MLOAD DUP1 SWAP2 SUB SWAP1 REVERT JUMPDEST PUSH1 0x1 DUP2 PUSH1 0x3 ADD PUSH1 0x0 PUSH2 0x100 EXP DUP2 SLOAD DUP2 PUSH1 0xFF MUL NOT AND SWAP1 DUP4 PUSH1 0x3 DUP2 GT ISZERO PUSH2 0x8F8 JUMPI PUSH2 0x8F7 PUSH2 0x139A JUMP JUMPDEST JUMPDEST MUL OR SWAP1 SSTORE POP POP POP JUMP JUMPDEST PUSH1 0x2 SLOAD DUP2 JUMP JUMPDEST PUSH1 0x0 CALLVALUE GT PUSH2 0x94A JUMPI PUSH1 0x40 MLOAD PUSH32 0x8C379A000000000000000000000000000000000000000000000000000000000 DUP2 MSTORE PUSH1 0x4 ADD PUSH2 0x941 SWAP1 PUSH2 0x1B3C JUMP JUMPDEST PUSH1 0x40 MLOAD DUP1 SWAP2 SUB SWAP1 REVERT JUMPDEST PUSH1 0x1 PUSH1 0x0 DUP2 SLOAD DUP1 SWAP3 SWAP2 SWAP1 PUSH2 0x95D SWAP1 PUSH2 0x17CA JUMP JUMPDEST SWAP2 SWAP1 POP SSTORE POP PUSH1 0x40 MLOAD DUP1 PUSH2 0x120 ADD PUSH1 0x40 MSTORE DUP1 PUSH1 0x1 SLOAD DUP2 MSTORE PUSH1 0x20 ADD CALLER PUSH20 0xFFFFFFFFFFFFFFFFFFFFFFFFFFFFFFFFFFFFFFFF AND DUP2 MSTORE PUSH1 0x20 ADD DUP6 DUP2 MSTORE PUSH1 0x20 ADD DUP5 DUP2 MSTORE PUSH1 0x20 ADD CALLVALUE DUP2 MSTORE PUSH1 0x20 ADD DUP4 DUP2 MSTORE PUSH1 0x20 ADD TIMESTAMP DUP2 MSTORE PUSH1 0x20 ADD PUSH3 0x15180 DUP4 PUSH2 0x9BF SWAP2 SWAP1 PUSH2 0x1B5C JUMP JUMPDEST TIMESTAMP PUSH2 0x9CA SWAP2 SWAP1 PUSH2 0x1B9E JUMP JUMPDEST DUP2 MSTORE PUSH1 0x20 ADD PUSH1 0x1 ISZERO ISZERO DUP2 MSTORE POP PUSH1 0x3 PUSH1 0x0 PUSH1 0x1 SLOAD DUP2 MSTORE PUSH1 0x20 ADD SWAP1 DUP2 MSTORE PUSH1 0x20 ADD PUSH1 0x0 KECCAK256 PUSH1 0x0 DUP3 ADD MLOAD DUP2 PUSH1 0x0 ADD SSTORE PUSH1 0x20 DUP3 ADD MLOAD DUP2 PUSH1 0x1 ADD PUSH1 0x0 PUSH2 0x100 EXP DUP2 SLOAD DUP2 PUSH20 0xFFFFFFFFFFFFFFFFFFFFFFFFFFFFFFFFFFFFFFFF MUL NOT AND SWAP1 DUP4 PUSH20 0xFFFFFFFFFFFFFFFFFFFFFFFFFFFFFFFFFFFFFFFF AND MUL OR SWAP1 SSTORE POP PUSH1 0x40 DUP3 ADD MLOAD DUP2 PUSH1 0x2 ADD SWAP1 DUP2 PUSH2 0xA51 SWAP2 SWAP1 PUSH2 0x1A1E JUMP JUMPDEST POP PUSH1 0x60 DUP3 ADD MLOAD DUP2 PUSH1 0x3 ADD SWAP1 DUP2 PUSH2 0xA67 SWAP2 SWAP1 PUSH2 0x1A1E JUMP JUMPDEST POP PUSH1 0x80 DUP3 ADD MLOAD DUP2 PUSH1 0x4 ADD SSTORE PUSH1 0xA0 DUP3 ADD MLOAD DUP2 PUSH1 0x5 ADD SSTORE PUSH1 0xC0 DUP3 ADD MLOAD DUP2 PUSH1 0x6 ADD SSTORE PUSH1 0xE0 DUP3 ADD MLOAD DUP2 PUSH1 0x7 ADD SSTORE PUSH2 0x100 DUP3 ADD MLOAD DUP2 PUSH1 0x8 ADD PUSH1 0x0 PUSH2 0x100 EXP DUP2 SLOAD DUP2 PUSH1 0xFF MUL NOT AND SWAP1 DUP4 ISZERO ISZERO MUL OR SWAP1 SSTORE POP SWAP1 POP POP PUSH1 0x4 PUSH1 0x0 CALLER PUSH20 0xFFFFFFFFFFFFFFFFFFFFFFFFFFFFFFFFFFFFFFFF AND PUSH20 0xFFFFFFFFFFFFFFFFFFFFFFFFFFFFFFFFFFFFFFFF AND DUP2 MSTORE PUSH1 0x20 ADD SWAP1 DUP2 MSTORE PUSH1 0x20 ADD PUSH1 0x0 KECCAK256 PUSH1 0x1 SLOAD SWAP1 DUP1 PUSH1 0x1 DUP2 SLOAD ADD DUP1 DUP3 SSTORE DUP1 SWAP2 POP POP PUSH1 0x1 SWAP1 SUB SWAP1 PUSH1 0x0 MSTORE PUSH1 0x20 PUSH1 0x0 KECCAK256 ADD PUSH1 0x0 SWAP1 SWAP2 SWAP1 SWAP2 SWAP1 SWAP2 POP SSTORE POP POP POP POP JUMP JUMPDEST PUSH1 0x60 PUSH1 0x4 PUSH1 0x0 DUP4 PUSH20 0xFFFFFFFFFFFFFFFFFFFFFFFFFFFFFFFFFFFFFFFF AND PUSH20 0xFFFFFFFFFFFFFFFFFFFFFFFFFFFFFFFFFFFFFFFF AND DUP2 MSTORE PUSH1 0x20 ADD SWAP1 DUP2 MSTORE PUSH1 0x20 ADD PUSH1 0x0 KECCAK256 DUP1 SLOAD DUP1 PUSH1 0x20 MUL PUSH1 0x20 ADD PUSH1 0x40 MLOAD SWAP1 DUP2 ADD PUSH1 0x40 MSTORE DUP1 SWAP3 SWAP2 SWAP1 DUP2 DUP2 MSTORE PUSH1 0x20 ADD DUP3 DUP1 SLOAD DUP1 ISZERO PUSH2 0xBAD JUMPI PUSH1 0x20 MUL DUP3 ADD SWAP2 SWAP1 PUSH1 0x0 MSTORE PUSH1 0x20 PUSH1 0x0 KECCAK256 SWAP1 JUMPDEST DUP2 SLOAD DUP2 MSTORE PUSH1 0x20 ADD SWAP1 PUSH1 0x1 ADD SWAP1 DUP1 DUP4 GT PUSH2 0xB99 JUMPI JUMPDEST POP POP POP POP POP SWAP1 POP SWAP2 SWAP1 POP JUMP JUMPDEST PUSH1 0x4 PUSH1 0x20 MSTORE DUP2 PUSH1 0x0 MSTORE PUSH1 0x40 PUSH1 0x0 KECCAK256 DUP2 DUP2 SLOAD DUP2 LT PUSH2 0xBD5 JUMPI PUSH1 0x0 DUP1 REVERT JUMPDEST SWAP1 PUSH1 0x0 MSTORE PUSH1 0x20 PUSH1 0x0 KECCAK256 ADD PUSH1 0x0 SWAP2 POP SWAP2 POP POP SLOAD DUP2 JUMP JUMPDEST PUSH1 0x0 DUP1 SLOAD SWAP1 PUSH2 0x100 EXP SWAP1 DIV PUSH20 0xFFFFFFFFFFFFFFFFFFFFFFFFFFFFFFFFFFFFFFFF AND DUP2 JUMP JUMPDEST PUSH1 0x5 PUSH1 0x20 MSTORE DUP1 PUSH1 0x0 MSTORE PUSH1 0x40 PUSH1 0x0 KECCAK256 PUSH1 0x0 SWAP2 POP SWAP1 POP DUP1 PUSH1 0x0 ADD SLOAD SWAP1 DUP1 PUSH1 0x1 ADD SLOAD SWAP1 DUP1 PUSH1 0x2 ADD DUP1 SLOAD PUSH2 0xC3D SWAP1 PUSH2 0x1841 JUMP JUMPDEST DUP1 PUSH1 0x1F ADD PUSH1 0x20 DUP1 SWAP2 DIV MUL PUSH1 0x20 ADD PUSH1 0x40 MLOAD SWAP1 DUP2 ADD PUSH1 0x40 MSTORE DUP1 SWAP3 SWAP2 SWAP1 DUP2 DUP2 MSTORE PUSH1 0x20 ADD DUP3 DUP1 SLOAD PUSH2 0xC69 SWAP1 PUSH2 0x1841 JUMP JUMPDEST DUP1 ISZERO PUSH2 0xCB6 JUMPI DUP1 PUSH1 0x1F LT PUSH2 0xC8B JUMPI PUSH2 0x100 DUP1 DUP4 SLOAD DIV MUL DUP4 MSTORE SWAP2 PUSH1 0x20 ADD SWAP2 PUSH2 0xCB6 JUMP JUMPDEST DUP3 ADD SWAP2 SWAP1 PUSH1 0x0 MSTORE PUSH1 0x20 PUSH1 0x0 KECCAK256 SWAP1 JUMPDEST DUP2 SLOAD DUP2 MSTORE SWAP1 PUSH1 0x1 ADD SWAP1 PUSH1 0x20 ADD DUP1 DUP4 GT PUSH2 0xC99 JUMPI DUP3 SWAP1 SUB PUSH1 0x1F AND DUP3 ADD SWAP2 JUMPDEST POP POP POP POP POP SWAP1 DUP1 PUSH1 0x3 ADD PUSH1 0x0 SWAP1 SLOAD SWAP1 PUSH2 0x100 EXP SWAP1 DIV PUSH1 0xFF AND SWAP1 POP DUP5 JUMP JUMPDEST PUSH1 0x3 PUSH1 0x20 MSTORE DUP1 PUSH1 0x0 MSTORE PUSH1 0x40 PUSH1 0x0 KECCAK256 PUSH1 0x0 SWAP2 POP SWAP1 POP DUP1 PUSH1 0x0 ADD SLOAD SWAP1 DUP1 PUSH1 0x1 ADD PUSH1 0x0 SWAP1 SLOAD SWAP1 PUSH2 0x100 EXP SWAP1 DIV PUSH20 0xFFFFFFFFFFFFFFFFFFFFFFFFFFFFFFFFFFFFFFFF AND SWAP1 DUP1 PUSH1 0x2 ADD DUP1 SLOAD PUSH2 0xD22 SWAP1 PUSH2 0x1841 JUMP JUMPDEST DUP1 PUSH1 0x1F ADD PUSH1 0x20 DUP1 SWAP2 DIV MUL PUSH1 0x20 ADD PUSH1 0x40 MLOAD SWAP1 DUP2 ADD PUSH1 0x40 MSTORE DUP1 SWAP3 SWAP2 SWAP1 DUP2 DUP2 MSTORE PUSH1 0x20 ADD DUP3 DUP1 SLOAD PUSH2 0xD4E SWAP1 PUSH2 0x1841 JUMP JUMPDEST DUP1 ISZERO PUSH2 0xD9B JUMPI DUP1 PUSH1 0x1F LT PUSH2 0xD70 JUMPI PUSH2 0x100 DUP1 DUP4 SLOAD DIV MUL DUP4 MSTORE SWAP2 PUSH1 0x20 ADD SWAP2 PUSH2 0xD9B JUMP JUMPDEST DUP3 ADD SWAP2 SWAP1 PUSH1 0x0 MSTORE PUSH1 0x20 PUSH1 0x0 KECCAK256 SWAP1 JUMPDEST DUP2 SLOAD DUP2 MSTORE SWAP1 PUSH1 0x1 ADD SWAP1 PUSH1 0x20 ADD DUP1 DUP4 GT PUSH2 0xD7E JUMPI DUP3 SWAP1 SUB PUSH1 0x1F AND DUP3 ADD SWAP2 JUMPDEST POP POP POP POP POP SWAP1 DUP1 PUSH1 0x3 ADD DUP1 SLOAD PUSH2 0xDB0 SWAP1 PUSH2 0x1841 JUMP JUMPDEST DUP1 PUSH1 0x1F ADD PUSH1 0x20 DUP1 SWAP2 DIV MUL PUSH1 0x20 ADD PUSH1 0x40 MLOAD SWAP1 DUP2 ADD PUSH1 0x40 MSTORE DUP1 SWAP3 SWAP2 SWAP1 DUP2 DUP2 MSTORE PUSH1 0x20 ADD DUP3 DUP1 SLOAD PUSH2 0xDDC SWAP1 PUSH2 0x1841 JUMP JUMPDEST DUP1 ISZERO PUSH2 0xE29 JUMPI DUP1 PUSH1 0x1F LT PUSH2 0xDFE JUMPI PUSH2 0x100 DUP1 DUP4 SLOAD DIV MUL DUP4 MSTORE SWAP2 PUSH1 0x20 ADD SWAP2 PUSH2 0xE29 JUMP JUMPDEST DUP3 ADD SWAP2 SWAP1 PUSH1 0x0 MSTORE PUSH1 0x20 PUSH1 0x0 KECCAK256 SWAP1 JUMPDEST DUP2 SLOAD DUP2 MSTORE SWAP1 PUSH1 0x1 ADD SWAP1 PUSH1 0x20 ADD DUP1 DUP4 GT PUSH2 0xE0C JUMPI DUP3 SWAP1 SUB PUSH1 0x1F AND DUP3 ADD SWAP2 JUMPDEST POP POP POP POP POP SWAP1 DUP1 PUSH1 0x4 ADD SLOAD SWAP1 DUP1 PUSH1 0x5 ADD SLOAD SWAP1 DUP1 PUSH1 0x6 ADD SLOAD SWAP1 DUP1 PUSH1 0x7 ADD SLOAD SWAP1 DUP1 PUSH1 0x8 ADD PUSH1 0x0 SWAP1 SLOAD SWAP1 PUSH2 0x100 EXP SWAP1 DIV PUSH1 0xFF AND SWAP1 POP DUP10 JUMP JUMPDEST PUSH1 0x1 SLOAD DUP2 JUMP JUMPDEST PUSH1 0x0 PUSH1 0x40 MLOAD SWAP1 POP SWAP1 JUMP JUMPDEST PUSH1 0x0 DUP1 REVERT JUMPDEST PUSH1 0x0 DUP1 REVERT JUMPDEST PUSH1 0x0 DUP2 SWAP1 POP SWAP2 SWAP1 POP JUMP JUMPDEST PUSH2 0xE8B DUP2 PUSH2 0xE78 JUMP JUMPDEST DUP2 EQ PUSH2 0xE96 JUMPI PUSH1 0x0 DUP1 REVERT JUMPDEST POP JUMP JUMPDEST PUSH1 0x0 DUP2 CALLDATALOAD SWAP1 POP PUSH2 0xEA8 DUP2 PUSH2 0xE82 JUMP JUMPDEST SWAP3 SWAP2 POP POP JUMP JUMPDEST PUSH1 0x0 PUSH1 0x20 DUP3 DUP5 SUB SLT ISZERO PUSH2 0xEC4 JUMPI PUSH2 0xEC3 PUSH2 0xE6E JUMP JUMPDEST JUMPDEST PUSH1 0x0 PUSH2 0xED2 DUP5 DUP3 DUP6 ADD PUSH2 0xE99 JUMP JUMPDEST SWAP2 POP POP SWAP3 SWAP2 POP POP JUMP JUMPDEST PUSH1 0x0 DUP1 REVERT JUMPDEST PUSH1 0x0 DUP1 REVERT JUMPDEST PUSH1 0x0 PUSH1 0x1F NOT PUSH1 0x1F DUP4 ADD AND SWAP1 POP SWAP2 SWAP1 POP JUMP JUMPDEST PUSH32 0x4E487B7100000000000000000000000000000000000000000000000000000000 PUSH1 0x0 MSTORE PUSH1 0x41 PUSH1 0x4 MSTORE PUSH1 0x24 PUSH1 0x0 REVERT JUMPDEST PUSH2 0xF2E DUP3 PUSH2 0xEE5 JUMP JUMPDEST DUP2 ADD DUP2 DUP2 LT PUSH8 0xFFFFFFFFFFFFFFFF DUP3 GT OR ISZERO PUSH2 0xF4D JUMPI PUSH2 0xF4C PUSH2 0xEF6 JUMP JUMPDEST JUMPDEST DUP1 PUSH1 0x40 MSTORE POP POP POP JUMP JUMPDEST PUSH1 0x0 PUSH2 0xF60 PUSH2 0xE64 JUMP JUMPDEST SWAP1 POP PUSH2 0xF6C DUP3 DUP3 PUSH2 0xF25 JUMP JUMPDEST SWAP2 SWAP1 POP JUMP JUMPDEST PUSH1 0x0 PUSH8 0xFFFFFFFFFFFFFFFF DUP3 GT ISZERO PUSH2 0xF8C JUMPI PUSH2 0xF8B PUSH2 0xEF6 JUMP JUMPDEST JUMPDEST PUSH2 0xF95 DUP3 PUSH2 0xEE5 JUMP JUMPDEST SWAP1 POP PUSH1 0x20 DUP2 ADD SWAP1 POP SWAP2 SWAP1 POP JUMP JUMPDEST DUP3 DUP2 DUP4 CALLDATACOPY PUSH1 0x0 DUP4 DUP4 ADD MSTORE POP POP POP JUMP JUMPDEST PUSH1 0x0 PUSH2 0xFC4 PUSH2 0xFBF DUP5 PUSH2 0xF71 JUMP JUMPDEST PUSH2 0xF56 JUMP JUMPDEST SWAP1 POP DUP3 DUP2 MSTORE PUSH1 0x20 DUP2 ADD DUP5 DUP5 DUP5 ADD GT ISZERO PUSH2 0xFE0 JUMPI PUSH2 0xFDF PUSH2 0xEE0 JUMP JUMPDEST JUMPDEST PUSH2 0xFEB DUP5 DUP3 DUP6 PUSH2 0xFA2 JUMP JUMPDEST POP SWAP4 SWAP3 POP POP POP JUMP JUMPDEST PUSH1 0x0 DUP3 PUSH1 0x1F DUP4 ADD SLT PUSH2 0x1008 JUMPI PUSH2 0x1007 PUSH2 0xEDB JUMP JUMPDEST JUMPDEST DUP2 CALLDATALOAD PUSH2 0x1018 DUP5 DUP3 PUSH1 0x20 DUP7 ADD PUSH2 0xFB1 JUMP JUMPDEST SWAP2 POP POP SWAP3 SWAP2 POP POP JUMP JUMPDEST PUSH1 0x0 DUP1 PUSH1 0x40 DUP4 DUP6 SUB SLT ISZERO PUSH2 0x1038 JUMPI PUSH2 0x1037 PUSH2 0xE6E JUMP JUMPDEST JUMPDEST PUSH1 0x0 PUSH2 0x1046 DUP6 DUP3 DUP7 ADD PUSH2 0xE99 JUMP JUMPDEST SWAP3 POP POP PUSH1 0x20 DUP4 ADD CALLDATALOAD PUSH8 0xFFFFFFFFFFFFFFFF DUP2 GT ISZERO PUSH2 0x1067 JUMPI PUSH2 0x1066 PUSH2 0xE73 JUMP JUMPDEST JUMPDEST PUSH2 0x1073 DUP6 DUP3 DUP7 ADD PUSH2 0xFF3 JUMP JUMPDEST SWAP2 POP POP SWAP3 POP SWAP3 SWAP1 POP JUMP JUMPDEST PUSH2 0x1086 DUP2 PUSH2 0xE78 JUMP JUMPDEST DUP3 MSTORE POP POP JUMP JUMPDEST PUSH1 0x0 PUSH1 0x20 DUP3 ADD SWAP1 POP PUSH2 0x10A1 PUSH1 0x0 DUP4 ADD DUP5 PUSH2 0x107D JUMP JUMPDEST SWAP3 SWAP2 POP POP JUMP JUMPDEST PUSH1 0x0 DUP1 PUSH1 0x0 DUP1 PUSH1 0x80 DUP6 DUP8 SUB SLT ISZERO PUSH2 0x10C1 JUMPI PUSH2 0x10C0 PUSH2 0xE6E JUMP JUMPDEST JUMPDEST PUSH1 0x0 DUP6 ADD CALLDATALOAD PUSH8 0xFFFFFFFFFFFFFFFF DUP2 GT ISZERO PUSH2 0x10DF JUMPI PUSH2 0x10DE PUSH2 0xE73 JUMP JUMPDEST JUMPDEST PUSH2 0x10EB DUP8 DUP3 DUP9 ADD PUSH2 0xFF3 JUMP JUMPDEST SWAP5 POP POP PUSH1 0x20 DUP6 ADD CALLDATALOAD PUSH8 0xFFFFFFFFFFFFFFFF DUP2 GT ISZERO PUSH2 0x110C JUMPI PUSH2 0x110B PUSH2 0xE73 JUMP JUMPDEST JUMPDEST PUSH2 0x1118 DUP8 DUP3 DUP9 ADD PUSH2 0xFF3 JUMP JUMPDEST SWAP4 POP POP PUSH1 0x40 PUSH2 0x1129 DUP8 DUP3 DUP9 ADD PUSH2 0xE99 JUMP JUMPDEST SWAP3 POP POP PUSH1 0x60 PUSH2 0x113A DUP8 DUP3 DUP9 ADD PUSH2 0xE99 JUMP JUMPDEST SWAP2 POP POP SWAP3 SWAP6 SWAP2 SWAP5 POP SWAP3 POP JUMP JUMPDEST PUSH1 0x0 PUSH20 0xFFFFFFFFFFFFFFFFFFFFFFFFFFFFFFFFFFFFFFFF DUP3 AND SWAP1 POP SWAP2 SWAP1 POP JUMP JUMPDEST PUSH1 0x0 PUSH2 0x1171 DUP3 PUSH2 0x1146 JUMP JUMPDEST SWAP1 POP SWAP2 SWAP1 POP JUMP JUMPDEST PUSH2 0x1181 DUP2 PUSH2 0x1166 JUMP JUMPDEST DUP2 EQ PUSH2 0x118C JUMPI PUSH1 0x0 DUP1 REVERT JUMPDEST POP JUMP JUMPDEST PUSH1 0x0 DUP2 CALLDATALOAD SWAP1 POP PUSH2 0x119E DUP2 PUSH2 0x1178 JUMP JUMPDEST SWAP3 SWAP2 POP POP JUMP JUMPDEST PUSH1 0x0 PUSH1 0x20 DUP3 DUP5 SUB SLT ISZERO PUSH2 0x11BA JUMPI PUSH2 0x11B9 PUSH2 0xE6E JUMP JUMPDEST JUMPDEST PUSH1 0x0 PUSH2 0x11C8 DUP5 DUP3 DUP6 ADD PUSH2 0x118F JUMP JUMPDEST SWAP2 POP POP SWAP3 SWAP2 POP POP JUMP JUMPDEST PUSH1 0x0 DUP2 MLOAD SWAP1 POP SWAP2 SWAP1 POP JUMP JUMPDEST PUSH1 0x0 DUP3 DUP3 MSTORE PUSH1 0x20 DUP3 ADD SWAP1 POP SWAP3 SWAP2 POP POP JUMP JUMPDEST PUSH1 0x0 DUP2 SWAP1 POP PUSH1 0x20 DUP3 ADD SWAP1 POP SWAP2 SWAP1 POP JUMP JUMPDEST PUSH2 0x1206 DUP2 PUSH2 0xE78 JUMP JUMPDEST DUP3 MSTORE POP POP JUMP JUMPDEST PUSH1 0x0 PUSH2 0x1218 DUP4 DUP4 PUSH2 0x11FD JUMP JUMPDEST PUSH1 0x20 DUP4 ADD SWAP1 POP SWAP3 SWAP2 POP POP JUMP JUMPDEST PUSH1 0x0 PUSH1 0x20 DUP3 ADD SWAP1 POP SWAP2 SWAP1 POP JUMP JUMPDEST PUSH1 0x0 PUSH2 0x123C DUP3 PUSH2 0x11D1 JUMP JUMPDEST PUSH2 0x1246 DUP2 DUP6 PUSH2 0x11DC JUMP JUMPDEST SWAP4 POP PUSH2 0x1251 DUP4 PUSH2 0x11ED JUMP JUMPDEST DUP1 PUSH1 0x0 JUMPDEST DUP4 DUP2 LT ISZERO PUSH2 0x1282 JUMPI DUP2 MLOAD PUSH2 0x1269 DUP9 DUP3 PUSH2 0x120C JUMP JUMPDEST SWAP8 POP PUSH2 0x1274 DUP4 PUSH2 0x1224 JUMP JUMPDEST SWAP3 POP POP PUSH1 0x1 DUP2 ADD SWAP1 POP PUSH2 0x1255 JUMP JUMPDEST POP DUP6 SWAP4 POP POP POP POP SWAP3 SWAP2 POP POP JUMP JUMPDEST PUSH1 0x0 PUSH1 0x20 DUP3 ADD SWAP1 POP DUP2 DUP2 SUB PUSH1 0x0 DUP4 ADD MSTORE PUSH2 0x12A9 DUP2 DUP5 PUSH2 0x1231 JUMP JUMPDEST SWAP1 POP SWAP3 SWAP2 POP POP JUMP JUMPDEST PUSH1 0x0 DUP1 PUSH1 0x40 DUP4 DUP6 SUB SLT ISZERO PUSH2 0x12C8 JUMPI PUSH2 0x12C7 PUSH2 0xE6E JUMP JUMPDEST JUMPDEST PUSH1 0x0 PUSH2 0x12D6 DUP6 DUP3 DUP7 ADD PUSH2 0x118F JUMP JUMPDEST SWAP3 POP POP PUSH1 0x20 PUSH2 0x12E7 DUP6 DUP3 DUP7 ADD PUSH2 0xE99 JUMP JUMPDEST SWAP2 POP POP SWAP3 POP SWAP3 SWAP1 POP JUMP JUMPDEST PUSH2 0x12FA DUP2 PUSH2 0x1166 JUMP JUMPDEST DUP3 MSTORE POP POP JUMP JUMPDEST PUSH1 0x0 PUSH1 0x20 DUP3 ADD SWAP1 POP PUSH2 0x1315 PUSH1 0x0 DUP4 ADD DUP5 PUSH2 0x12F1 JUMP JUMPDEST SWAP3 SWAP2 POP POP JUMP JUMPDEST PUSH1 0x0 DUP2 MLOAD SWAP1 POP SWAP2 SWAP1 POP JUMP JUMPDEST PUSH1 0x0 DUP3 DUP3 MSTORE PUSH1 0x20 DUP3 ADD SWAP1 POP SWAP3 SWAP2 POP POP JUMP JUMPDEST PUSH1 0x0 JUMPDEST DUP4 DUP2 LT ISZERO PUSH2 0x1355 JUMPI DUP1 DUP3 ADD MLOAD DUP2 DUP5 ADD MSTORE PUSH1 0x20 DUP2 ADD SWAP1 POP PUSH2 0x133A JUMP JUMPDEST PUSH1 0x0 DUP5 DUP5 ADD MSTORE POP POP POP POP JUMP JUMPDEST PUSH1 0x0 PUSH2 0x136C DUP3 PUSH2 0x131B JUMP JUMPDEST PUSH2 0x1376 DUP2 DUP6 PUSH2 0x1326 JUMP JUMPDEST SWAP4 POP PUSH2 0x1386 DUP2 DUP6 PUSH1 0x20 DUP7 ADD PUSH2 0x1337 JUMP JUMPDEST PUSH2 0x138F DUP2 PUSH2 0xEE5 JUMP JUMPDEST DUP5 ADD SWAP2 POP POP SWAP3 SWAP2 POP POP JUMP JUMPDEST PUSH32 0x4E487B7100000000000000000000000000000000000000000000000000000000 PUSH1 0x0 MSTORE PUSH1 0x21 PUSH1 0x4 MSTORE PUSH1 0x24 PUSH1 0x0 REVERT JUMPDEST PUSH1 0x4 DUP2 LT PUSH2 0x13DA JUMPI PUSH2 0x13D9 PUSH2 0x139A JUMP JUMPDEST JUMPDEST POP JUMP JUMPDEST PUSH1 0x0 DUP2 SWAP1 POP PUSH2 0x13EB DUP3 PUSH2 0x13C9 JUMP JUMPDEST SWAP2 SWAP1 POP JUMP JUMPDEST PUSH1 0x0 PUSH2 0x13FB DUP3 PUSH2 0x13DD JUMP JUMPDEST SWAP1 POP SWAP2 SWAP1 POP JUMP JUMPDEST PUSH2 0x140B DUP2 PUSH2 0x13F0 JUMP JUMPDEST DUP3 MSTORE POP POP JUMP JUMPDEST PUSH1 0x0 PUSH1 0x80 DUP3 ADD SWAP1 POP PUSH2 0x1426 PUSH1 0x0 DUP4 ADD DUP8 PUSH2 0x107D JUMP JUMPDEST PUSH2 0x1433 PUSH1 0x20 DUP4 ADD DUP7 PUSH2 0x107D JUMP JUMPDEST DUP2 DUP2 SUB PUSH1 0x40 DUP4 ADD MSTORE PUSH2 0x1445 DUP2 DUP6 PUSH2 0x1361 JUMP JUMPDEST SWAP1 POP PUSH2 0x1454 PUSH1 0x60 DUP4 ADD DUP5 PUSH2 0x1402 JUMP JUMPDEST SWAP6 SWAP5 POP POP POP POP POP JUMP JUMPDEST PUSH1 0x0 DUP2 ISZERO ISZERO SWAP1 POP SWAP2 SWAP1 POP JUMP JUMPDEST PUSH2 0x1472 DUP2 PUSH2 0x145D JUMP JUMPDEST DUP3 MSTORE POP POP JUMP JUMPDEST PUSH1 0x0 PUSH2 0x120 DUP3 ADD SWAP1 POP PUSH2 0x148E PUSH1 0x0 DUP4 ADD DUP13 PUSH2 0x107D JUMP JUMPDEST PUSH2 0x149B PUSH1 0x20 DUP4 ADD DUP12 PUSH2 0x12F1 JUMP JUMPDEST DUP2 DUP2 SUB PUSH1 0x40 DUP4 ADD MSTORE PUSH2 0x14AD DUP2 DUP11 PUSH2 0x1361 JUMP JUMPDEST SWAP1 POP DUP2 DUP2 SUB PUSH1 0x60 DUP4 ADD MSTORE PUSH2 0x14C1 DUP2 DUP10 PUSH2 0x1361 JUMP JUMPDEST SWAP1 POP PUSH2 0x14D0 PUSH1 0x80 DUP4 ADD DUP9 PUSH2 0x107D JUMP JUMPDEST PUSH2 0x14DD PUSH1 0xA0 DUP4 ADD DUP8 PUSH2 0x107D JUMP JUMPDEST PUSH2 0x14EA PUSH1 0xC0 DUP4 ADD DUP7 PUSH2 0x107D JUMP JUMPDEST PUSH2 0x14F7 PUSH1 0xE0 DUP4 ADD DUP6 PUSH2 0x107D JUMP JUMPDEST PUSH2 0x1505 PUSH2 0x100 DUP4 ADD DUP5 PUSH2 0x1469 JUMP JUMPDEST SWAP11 SWAP10 POP POP POP POP POP POP POP POP POP POP JUMP JUMPDEST PUSH32 0x4E6F7420617070726F7665640000000000000000000000000000000000000000 PUSH1 0x0 DUP3 ADD MSTORE POP JUMP JUMPDEST PUSH1 0x0 PUSH2 0x1549 PUSH1 0xC DUP4 PUSH2 0x1326 JUMP JUMPDEST SWAP2 POP PUSH2 0x1554 DUP3 PUSH2 0x1513 JUMP JUMPDEST PUSH1 0x20 DUP3 ADD SWAP1 POP SWAP2 SWAP1 POP JUMP JUMPDEST PUSH1 0x0 PUSH1 0x20 DUP3 ADD SWAP1 POP DUP2 DUP2 SUB PUSH1 0x0 DUP4 ADD MSTORE PUSH2 0x1578 DUP2 PUSH2 0x153C JUMP JUMPDEST SWAP1 POP SWAP2 SWAP1 POP JUMP JUMPDEST PUSH32 0x496E73756666696369656E742066756E64730000000000000000000000000000 PUSH1 0x0 DUP3 ADD MSTORE POP JUMP JUMPDEST PUSH1 0x0 PUSH2 0x15B5 PUSH1 0x12 DUP4 PUSH2 0x1326 JUMP JUMPDEST SWAP2 POP PUSH2 0x15C0 DUP3 PUSH2 0x157F JUMP JUMPDEST PUSH1 0x20 DUP3 ADD SWAP1 POP SWAP2 SWAP1 POP JUMP JUMPDEST PUSH1 0x0 PUSH1 0x20 DUP3 ADD SWAP1 POP DUP2 DUP2 SUB PUSH1 0x0 DUP4 ADD MSTORE PUSH2 0x15E4 DUP2 PUSH2 0x15A8 JUMP JUMPDEST SWAP1 POP SWAP2 SWAP1 POP JUMP JUMPDEST PUSH32 0x4E6F7420617574686F72697A6564000000000000000000000000000000000000 PUSH1 0x0 DUP3 ADD MSTORE POP JUMP JUMPDEST PUSH1 0x0 PUSH2 0x1621 PUSH1 0xE DUP4 PUSH2 0x1326 JUMP JUMPDEST SWAP2 POP PUSH2 0x162C DUP3 PUSH2 0x15EB JUMP JUMPDEST PUSH1 0x20 DUP3 ADD SWAP1 POP SWAP2 SWAP1 POP JUMP JUMPDEST PUSH1 0x0 PUSH1 0x20 DUP3 ADD SWAP1 POP DUP2 DUP2 SUB PUSH1 0x0 DUP4 ADD MSTORE PUSH2 0x1650 DUP2 PUSH2 0x1614 JUMP JUMPDEST SWAP1 POP SWAP2 SWAP1 POP JUMP JUMPDEST PUSH32 0x496E76616C696420737461747573000000000000000000000000000000000000 PUSH1 0x0 DUP3 ADD MSTORE POP JUMP JUMPDEST PUSH1 0x0 PUSH2 0x168D PUSH1 0xE DUP4 PUSH2 0x1326 JUMP JUMPDEST SWAP2 POP PUSH2 0x1698 DUP3 PUSH2 0x1657 JUMP JUMPDEST PUSH1 0x20 DUP3 ADD SWAP1 POP SWAP2 SWAP1 POP JUMP JUMPDEST PUSH1 0x0 PUSH1 0x20 DUP3 ADD SWAP1 POP DUP2 DUP2 SUB PUSH1 0x0 DUP4 ADD MSTORE PUSH2 0x16BC DUP2 PUSH2 0x1680 JUMP JUMPDEST SWAP1 POP SWAP2 SWAP1 POP JUMP JUMPDEST PUSH32 0x4E6F7420706F6C696379206F776E657200000000000000000000000000000000 PUSH1 0x0 DUP3 ADD MSTORE POP JUMP JUMPDEST PUSH1 0x0 PUSH2 0x16F9 PUSH1 0x10 DUP4 PUSH2 0x1326 JUMP JUMPDEST SWAP2 POP PUSH2 0x1704 DUP3 PUSH2 0x16C3 JUMP JUMPDEST PUSH1 0x20 DUP3 ADD SWAP1 POP SWAP2 SWAP1 POP JUMP JUMPDEST PUSH1 0x0 PUSH1 0x20 DUP3 ADD SWAP1 POP DUP2 DUP2 SUB PUSH1 0x0 DUP4 ADD MSTORE PUSH2 0x1728 DUP2 PUSH2 0x16EC JUMP JUMPDEST SWAP1 POP SWAP2 SWAP1 POP JUMP JUMPDEST PUSH32 0x506F6C69637920696E6163746976650000000000000000000000000000000000 PUSH1 0x0 DUP3 ADD MSTORE POP JUMP JUMPDEST PUSH1 0x0 PUSH2 0x1765 PUSH1 0xF DUP4 PUSH2 0x1326 JUMP JUMPDEST SWAP2 POP PUSH2 0x1770 DUP3 PUSH2 0x172F JUMP JUMPDEST PUSH1 0x20 DUP3 ADD SWAP1 POP SWAP2 SWAP1 POP JUMP JUMPDEST PUSH1 0x0 PUSH1 0x20 DUP3 ADD SWAP1 POP DUP2 DUP2 SUB PUSH1 0x0 DUP4 ADD MSTORE PUSH2 0x1794 DUP2 PUSH2 0x1758 JUMP JUMPDEST SWAP1 POP SWAP2 SWAP1 POP JUMP JUMPDEST PUSH32 0x4E487B7100000000000000000000000000000000000000000000000000000000 PUSH1 0x0 MSTORE PUSH1 0x11 PUSH1 0x4 MSTORE PUSH1 0x24 PUSH1 0x0 REVERT JUMPDEST PUSH1 0x0 PUSH2 0x17D5 DUP3 PUSH2 0xE78 JUMP JUMPDEST SWAP2 POP PUSH32 0xFFFFFFFFFFFFFFFFFFFFFFFFFFFFFFFFFFFFFFFFFFFFFFFFFFFFFFFFFFFFFFFF DUP3 SUB PUSH2 0x1807 JUMPI PUSH2 0x1806 PUSH2 0x179B JUMP JUMPDEST JUMPDEST PUSH1 0x1 DUP3 ADD SWAP1 POP SWAP2 SWAP1 POP JUMP JUMPDEST PUSH32 0x4E487B7100000000000000000000000000000000000000000000000000000000 PUSH1 0x0 MSTORE PUSH1 0x22 PUSH1 0x4 MSTORE PUSH1 0x24 PUSH1 0x0 REVERT JUMPDEST PUSH1 0x0 PUSH1 0x2 DUP3 DIV SWAP1 POP PUSH1 0x1 DUP3 AND DUP1 PUSH2 0x1859 JUMPI PUSH1 0x7F DUP3 AND SWAP2 POP JUMPDEST PUSH1 0x20 DUP3 LT DUP2 SUB PUSH2 0x186C JUMPI PUSH2 0x186B PUSH2 0x1812 JUMP JUMPDEST JUMPDEST POP SWAP2 SWAP1 POP JUMP JUMPDEST PUSH1 0x0 DUP2 SWAP1 POP DUP2 PUSH1 0x0 MSTORE PUSH1 0x20 PUSH1 0x0 KECCAK256 SWAP1 POP SWAP2 SWAP1 POP JUMP JUMPDEST PUSH1 0x0 PUSH1 0x20 PUSH1 0x1F DUP4 ADD DIV SWAP1 POP SWAP2 SWAP1 POP JUMP JUMPDEST PUSH1 0x0 DUP3 DUP3 SHL SWAP1 POP SWAP3 SWAP2 POP POP JUMP JUMPDEST PUSH1 0x0 PUSH1 0x8 DUP4 MUL PUSH2 0x18D4 PUSH32 0xFFFFFFFFFFFFFFFFFFFFFFFFFFFFFFFFFFFFFFFFFFFFFFFFFFFFFFFFFFFFFFFF DUP3 PUSH2 0x1897 JUMP JUMPDEST PUSH2 0x18DE DUP7 DUP4 PUSH2 0x1897 JUMP JUMPDEST SWAP6 POP DUP1 NOT DUP5 AND SWAP4 POP DUP1 DUP7 AND DUP5 OR SWAP3 POP POP POP SWAP4 SWAP3 POP POP POP JUMP JUMPDEST PUSH1 0x0 DUP2 SWAP1 POP SWAP2 SWAP1 POP JUMP JUMPDEST PUSH1 0x0 PUSH2 0x191B PUSH2 0x1916 PUSH2 0x1911 DUP5 PUSH2 0xE78 JUMP JUMPDEST PUSH2 0x18F6 JUMP JUMPDEST PUSH2 0xE78 JUMP JUMPDEST SWAP1 POP SWAP2 SWAP1 POP JUMP JUMPDEST PUSH1 0x0 DUP2 SWAP1 POP SWAP2 SWAP1 POP JUMP JUMPDEST PUSH2 0x1935 DUP4 PUSH2 0x1900 JUMP JUMPDEST PUSH2 0x1949 PUSH2 0x1941 DUP3 PUSH2 0x1922 JUMP JUMPDEST DUP5 DUP5 SLOAD PUSH2 0x18A4 JUMP JUMPDEST DUP3 SSTORE POP POP POP POP JUMP JUMPDEST PUSH1 0x0 SWAP1 JUMP JUMPDEST PUSH2 0x195E PUSH2 0x1951 JUMP JUMPDEST PUSH2 0x1969 DUP2 DUP5 DUP5 PUSH2 0x192C JUMP JUMPDEST POP POP POP JUMP JUMPDEST JUMPDEST DUP2 DUP2 LT ISZERO PUSH2 0x198D JUMPI PUSH2 0x1982 PUSH1 0x0 DUP3 PUSH2 0x1956 JUMP JUMPDEST PUSH1 0x1 DUP2 ADD SWAP1 POP PUSH2 0x196F JUMP JUMPDEST POP POP JUMP JUMPDEST PUSH1 0x1F DUP3 GT ISZERO PUSH2 0x19D2 JUMPI PUSH2 0x19A3 DUP2 PUSH2 0x1872 JUMP JUMPDEST PUSH2 0x19AC DUP5 PUSH2 0x1887 JUMP JUMPDEST DUP2 ADD PUSH1 0x20 DUP6 LT ISZERO PUSH2 0x19BB JUMPI DUP2 SWAP1 POP JUMPDEST PUSH2 0x19CF PUSH2 0x19C7 DUP6 PUSH2 0x1887 JUMP JUMPDEST DUP4 ADD DUP3 PUSH2 0x196E JUMP JUMPDEST POP POP JUMPDEST POP POP POP JUMP JUMPDEST PUSH1 0x0 DUP3 DUP3 SHR SWAP1 POP SWAP3 SWAP2 POP POP JUMP JUMPDEST PUSH1 0x0 PUSH2 0x19F5 PUSH1 0x0 NOT DUP5 PUSH1 0x8 MUL PUSH2 0x19D7 JUMP JUMPDEST NOT DUP1 DUP4 AND SWAP2 POP POP SWAP3 SWAP2 POP POP JUMP JUMPDEST PUSH1 0x0 PUSH2 0x1A0E DUP4 DUP4 PUSH2 0x19E4 JUMP JUMPDEST SWAP2 POP DUP3 PUSH1 0x2 MUL DUP3 OR SWAP1 POP SWAP3 SWAP2 POP POP JUMP JUMPDEST PUSH2 0x1A27 DUP3 PUSH2 0x131B JUMP JUMPDEST PUSH8 0xFFFFFFFFFFFFFFFF DUP2 GT ISZERO PUSH2 0x1A40 JUMPI PUSH2 0x1A3F PUSH2 0xEF6 JUMP JUMPDEST JUMPDEST PUSH2 0x1A4A DUP3 SLOAD PUSH2 0x1841 JUMP JUMPDEST PUSH2 0x1A55 DUP3 DUP3 DUP6 PUSH2 0x1991 JUMP JUMPDEST PUSH1 0x0 PUSH1 0x20 SWAP1 POP PUSH1 0x1F DUP4 GT PUSH1 0x1 DUP2 EQ PUSH2 0x1A88 JUMPI PUSH1 0x0 DUP5 ISZERO PUSH2 0x1A76 JUMPI DUP3 DUP8 ADD MLOAD SWAP1 POP JUMPDEST PUSH2 0x1A80 DUP6 DUP3 PUSH2 0x1A02 JUMP JUMPDEST DUP7 SSTORE POP PUSH2 0x1AE8 JUMP JUMPDEST PUSH1 0x1F NOT DUP5 AND PUSH2 0x1A96 DUP7 PUSH2 0x1872 JUMP JUMPDEST PUSH1 0x0 JUMPDEST DUP3 DUP2 LT ISZERO PUSH2 0x1ABE JUMPI DUP5 DUP10 ADD MLOAD DUP3 SSTORE PUSH1 0x1 DUP3 ADD SWAP2 POP PUSH1 0x20 DUP6 ADD SWAP5 POP PUSH1 0x20 DUP2 ADD SWAP1 POP PUSH2 0x1A99 JUMP JUMPDEST DUP7 DUP4 LT ISZERO PUSH2 0x1ADB JUMPI DUP5 DUP10 ADD MLOAD PUSH2 0x1AD7 PUSH1 0x1F DUP10 AND DUP3 PUSH2 0x19E4 JUMP JUMPDEST DUP4 SSTORE POP JUMPDEST PUSH1 0x1 PUSH1 0x2 DUP9 MUL ADD DUP9 SSTORE POP POP POP JUMPDEST POP POP POP POP POP POP JUMP JUMPDEST PUSH32 0x5072656D69756D20726571756972656400000000000000000000000000000000 PUSH1 0x0 DUP3 ADD MSTORE POP JUMP JUMPDEST PUSH1 0x0 PUSH2 0x1B26 PUSH1 0x10 DUP4 PUSH2 0x1326 JUMP JUMPDEST SWAP2 POP PUSH2 0x1B31 DUP3 PUSH2 0x1AF0 JUMP JUMPDEST PUSH1 0x20 DUP3 ADD SWAP1 POP SWAP2 SWAP1 POP JUMP JUMPDEST PUSH1 0x0 PUSH1 0x20 DUP3 ADD SWAP1 POP DUP2 DUP2 SUB PUSH1 0x0 DUP4 ADD MSTORE PUSH2 0x1B55 DUP2 PUSH2 0x1B19 JUMP JUMPDEST SWAP1 POP SWAP2 SWAP1 POP JUMP JUMPDEST PUSH1 0x0 PUSH2 0x1B67 DUP3 PUSH2 0xE78 JUMP JUMPDEST SWAP2 POP PUSH2 0x1B72 DUP4 PUSH2 0xE78 JUMP JUMPDEST SWAP3 POP DUP3 DUP3 MUL PUSH2 0x1B80 DUP2 PUSH2 0xE78 JUMP JUMPDEST SWAP2 POP DUP3 DUP3 DIV DUP5 EQ DUP4 ISZERO OR PUSH2 0x1B97 JUMPI PUSH2 0x1B96 PUSH2 0x179B JUMP JUMPDEST JUMPDEST POP SWAP3 SWAP2 POP POP JUMP JUMPDEST PUSH1 0x0 PUSH2 0x1BA9 DUP3 PUSH2 0xE78 JUMP JUMPDEST SWAP2 POP PUSH2 0x1BB4 DUP4 PUSH2 0xE78 JUMP JUMPDEST SWAP3 POP DUP3 DUP3 ADD SWAP1 POP DUP1 DUP3 GT ISZERO PUSH2 0x1BCC JUMPI PUSH2 0x1BCB PUSH2 0x179B JUMP JUMPDEST JUMPDEST SWAP3 SWAP2 POP POP JUMP INVALID LOG2 PUSH5 0x6970667358 0x22 SLT KECCAK256 DUP4 DUP12 LOG2 MLOAD 0xE5 DUP15 0x24 SWAP7 0xAC PC PUSH6 0xF965A02D500E 0xFC 0x22 MULMOD SWAP10 0x22 0xEB 0xAA GT 0x2E PUSH21 0x5A404D895064736F6C634300081C00330000000000 "
        },
        "methodIdentifiers": {
          "approveClaim(uint256)": "46e30135",
          "claimCounter()": "4efa8f17",
          "claims(uint256)": "a888c2cd",
          "createPolicy(string,string,uint256,uint256)": "666b2bec",
          "farmerPolicies(address,uint256)": "75f89051",
          "getPoliciesByFarmer(address)": "6a181556",
          "owner()": "8da5cb5b",
          "payoutClaim(uint256)": "0d13fa5a",
          "policies(uint256)": "d3e89483",
          "policyCounter()": "d52c1bea",
          "rejectClaim(uint256)": "20341101",
          "submitClaim(uint256,string)": "45b46525"
        }
      }
    }
  }
}